S02000006E63702D756172742D68772D67702D6D756C74692D7261696C2E7333376D
S21400400000100020D54C0000797D00007D7D00006A
S214004010D34C0000817D0000897D0000D34C000059
S214004020D34C0000D34C0000D34C0000D34C00000F
S2140040308D7D000008940300D34C0000D34C000094
S214004040D34C0000D34C0000D34C0000D1510000EC
S214004050D34C0000D34C0000D34C0000D34C0000DF
S214004060D34C0000D34C0000099B00003D4A0000E2
S214004070494A0000D34C0000D34C0000D34C00004B
S214004080D34C0000D34C0000D34C0000D34C0000AF
S214004090D34C0000D34C0000D34C0000D34C00009F
S2140040A0D34C0000D34C0000D34C0000D34C00008F
S2140040B0D34C0000F98D0100D34C0000C1970100DD
S2140040C065970100619701009D8F0100BD97010073
S2140040D069970100819701006D970100317C01000E
S2140040E001980100D34C0000D34C0000D34C0000D4
S2140040F0D34C0000E96A0000D34C0000D34C00000B
S214004100D34C0000D34C0000D34C0000D34C00002E
S214004110D34C0000D34C0000D34C0000D34C00001E
S214004120D34C0000D34C0000D34C0000D34C00000E
S214004130D34C000010B5054C237833B9044B13B1AB
S214004140044800E000BF0123237010BDA82400200F
S21400415000000000D4C2030008B5034B1BB103499E
S214004160034800E000BF08BD00000000AC240020AB
S214004170D4C20300A3F5803A704700BF174B002B4C
S21400418008BF134B9D46FFF7F5FF00218B460F46F1
S2140041901348144A121A34F0C4FF0E4B002B00D0FA
S2140041A098470D4B002B00D09847002000210400B4
S2140041B00D000D48002802D00C4800E000BF34F087
S2140041C04DFF2000290000F017FA34F033FF00BF3F
S2140041D000000800000000000000000000100020A2
S2140041E0D4180020D8760020000000000000000050
S2140041F00021084607F079BD7FB5044610237F22CC
S2140042000D466846262103F047FE6A46234604AE5E
S214004210144603CCB44218605960224603F10803E2
S214004220F6D10DB110232B7004B070BD08B5FF2376
S21400423005491A46054807F077FABDE80840002108
S2140042400348FFF7D9BF00BFF1410000C424002097
S214004250E42400204BF6BA2303804FF480530B80EF
S21400426070470000F0B50C46054626786F1E0E2EE9
S2140042701146184689B0FFB216D117F0EDF920F0B6
S2140042808FFA0EF0F5F800214FF6FF720346CDE9DF
S214004290022108460122CDE9001100F00BFAB0FA1F
S2140042A080F0400909B0F0BD0F2E1DD1102F4BD164
S2140042B0631C04AE1D4632461134374618685968EA
S2140042C0083303C7A3423E46F7D110237F2126209A
S2140042D003F0EBFD2B461D4A53F8041BA34242F89D
S2140042E0041BF9D10020DDE71F2E02D1FFF784FF63
S2140042F0F8E7A02E23D1062F01D87020D2E700239E
S2140043006178CDE905338DF818100029F5D12379A9
S214004310E2781B0403EB0223A278073D134462797C
S214004320EDB203EB0263CDE90313E31D02910193A3
S2140043300095A37904AA012017F0D9FCB2E7A12EB4
S214004340DBD117F089F9CDE70220ABE7E4240020A3
S2140043502DE9F0470446C0B008461646039121F002
S214004360A5F90023851BEDB2009332462B46039930
S21400437020A821F0C7FC24B10124204640B0BDE8A7
S214004380F0870C2DF8D99DF887609DF888300D2EA3
S21400439051D1E32BF0D105F580730DEB030515F82D
S2140043A0823C15F8832C1B0215F8815C03EB024354
S2140043B020461D441EF082FB0C238DF84030082357
S2140043C08DF84230FF238DF844308DF845308DF857
S2140043D046308DF84730F3234FF001098DF8493009
S2140043E0A0F10B038DF84A3007468DF841908DF802
S2140043F043408DF848608DF84B408DF84C400EF0E9
S214004400B2F946F29C3A20F07F48A8EB05035345E4
S214004410B3D81CF0DFFE6C4B55448DF84300A5EB7B
S214004420080500933A46314608AB10A8CDE908596E
S21400443000F004F9A1E78C2E9ED1582B9CD105F5EF
S21400444080730DEB030515F8823C15F8832C1B02D0
S21400445015F8815C03EB02431D440EF084F946F226
S2140044609C3320F07F40401B984285D8DDF8897049
S2140044701F2304AA0DF1210110A8DDF88D801197E5
S2140044808DF84C4017F09CF848B1BDF8103010A8D5
S2140044908DF8203017F0EAF89DF8506036B9012301
S2140044A08DF820300023FE268DF821309DF8203030
S2140044B0283BDBB2C82B4AD98C238DF8483098238A
S2140044C03A4601200DF14A018DF849301BF0B6FE40
S2140044D0424601200DF14E011BF0B0FE8DF85260F1
S2140044E09DF82060FF2E62D102248DF853600022D2
S2140044F0012004A9CDE90422CDE906221BF09EFE88
S2140045003A46012005A91BF099FE424606A901205D
S2140045101BF094FE05232D488DF81C3007F07EFE18
S21400452004F10A0312AAA6B252FA83F3CDE9006395
S2140045300A2212A904A80DF1520307F08FFF0E34C9
S214004540314604AA0DF15200E4B207F0D3FF204B27
S2140045501A68CDF841209A889B79ADF845208DF8E9
S21400456047301CF037FE04F109038DF840308DF813
S21400457043000EF0F8F846F29C3320F07F40421BD2
S2140045809A423FF6F9AE1D442D1A049501250020E7
S21400459005951EF093FA0C4B04F10A0102460093AF
S2140045A0C9B204AB10A800F049F82C46E5E6452E43
S2140045B09DD832460DF121010DF15300741C34F0E4
S2140045C089FDE4B293E700BF98100020E4240020A1
S2140045D0C893030008B5D30108D5FF21044807F0A7
S2140045E0D3F8BDE80840002120F0B6BC08BD00BFE7
S2140045F0C42400201EF0D8BC08B505F0A2FA05F0C9
S214004600ADFA04F095FCFAE70122014B1A707047E8
S2140046107925002070B51C46154604F4807405F014
S2140046208A450646FFF7D6FF55EA040304D030460F
S214004630BDE870400CF0AEBE70BD00002DE9F04342
S214004640DFF86C801E46D8F8003089B081460F46E9
S2140046501446109D43B326B9012303968DF81030F7
S21400466003AE4DB964234CF250328DF8143042F24A
S2140046701073CDE9062305AD14B91FF04AFF0446B2
S21400468001234946D8F80000BAB20DF083FFB842BD
S2140046900CD133460022D8F800000095A1B20CF0E9
S2140046A03CFE09B0BDE8F0830220FAE70320F8E7F5
S2140046B0F42400202DE9F04FDFF868B199B0DBF85C
S2140046C000600D4692461F46DDF88890BDF88C8047
S2140046D0002E40F09A804F4B4F49002808BF1846DE
S2140046E00CF038FD0446002800F08F8045B920F015
S2140046F057F804A90DF083FE002840F0868004AD2C
S214004700294620460DF05FFE00287ED15146204601
S2140047100DF0D0FE002878D1B9F1000F03D14FF08C
S2140047208008DFF8049143460022494620460DF0F3
S21400473047FF404569D14FF0011120460DF00EFFAE
S214004740002862D14FF48073344A2046CDE9002316
S2140047504FF0FF324FF0FF330DF01BFD002854D111
S2140047600123204603A98DF80C308DF80D300DF08E
S214004770FFFC002849D120460EF08AFA002838D1DE
S21400478020460EF07FFA014600283ED12C22CDE9C5
S2140047900A000C900DA834F0C4FC4FF00133B6228A
S2140047A00F936423CDE906320893C02310AD099316
S2140047B00DF1180CBCE80F000FC59CE8070040F28E
S2140047C00F1385E8070020460DA9ADF85C300EF003
S2140047D01BFA0246C8B92046BDF890100EF066FADD
S2140047E0024690B9259B23B1194620460EF08CFA56
S2140047F058B90B4B1B7803B9FEE7394620460DF037
S2140048000FFE10B92646CBF80040304619B0BDE87A
S214004810F08F00BFA41000200946000008090045DC
S21400482079250020F4240020F924002008B504216E
S214004830002001F0C7F90421062001F0C3F9082181
S214004840072001F0BFF90821084601F0BBF908214E
S2140048501C2001F0B7F90821242001F0B3F9082143
S214004860252001F0AFF9002008BD000007B501A81B
S21400487001F0A2FD9DF80530012B27D1224A936D49
S214004880DB0313D4536B23F4FF0323F4FE4343F4F8
S214004890BC1343F4A0635363136B23F4704343F4D5
S2140048A040431363136B43F4E06313639DF80430D3
S2140048B063B94FF000531B68144B1B68144B1B68FE
S2140048C0144B1B68144B1B68144B1B68144AD2F815
S2140048D0803043F00303C2F8803002F029F801F07C
S2140048E0E9FF02F043F801F0EDFFFFF79FFF01F04C
S2140048F0CFFF00F03BFC02F04DFF00F073FD03B06D
S2140049005DF804EB04F03EBA00C000500040002002
S2140049100080002000C00020000001200040012090
S2140049200080005000F0E0BC08B501F071FF01F017
S2140049308DFF01F09DFF15F069FE06F0DFFE06F024
S21400494051FF06F089FFBDE8084019F05BBC7047D0
S2140049507047704708B506F0DFFE06F055FFBDE865
S214004960084019F059BC704708B502F035F900F058
S21400497057F8BDE8084002F023BD08B504F0E4FD92
S21400498001F0F6FF08F0B0FABDE80840FFF7ECBF0C
S21400499070B5104E92B035460BAC0FCD0FC495E8EF
S2140049A007000D4B84E807000C4A07ACCDE903234B
S2140049B00023CDE9053306F11C030FCB84E80F0076
S2140049C0074B214600930BAA03AB064802F0F8FB00
S2140049D012B070BDDC930300210101010080055078
S2140049E07C25002044260020831E012B0AD801299E
S2140049F008D80422094B1B6CC3F340030121084668
S214004A0001F05EBB0239012907D8012805D8034BFF
S214004A1000221B6CC3F34003F0E7704700C003504E
S214004A2008B50449044804F061FABDE80840FFF7F9
S214004A30AFBF00BFC0100020BC250020014B186887
S214004A4002F07CBC44260020FFF7F8BF014B1A6A30
S214004A501868104744260020012070470120704740
S214004A6010B502F086FE044606F078FF002808BF60
S214004A70002403F061FF002808BF0024FFF7ECFFC6
S214004A80002814BF2046002010BD38B504F040FBB7
S214004A900446FFF7DBFF04281ED002284FF000056F
S214004AA008BF012402F067FE042817D0022808BFBA
S214004AB0012406F077FF042812D0022808BF01243C
S214004AC0FFF7CCFF04280DD0022808BF0124002DD4
S214004AD018BF0024204638BD0125E3E70125E8E796
S214004AE00125EDE70024F5E7014B1878704700BF75
S214004AF06826002008B50EF0C5F80022014B1A7093
S214004B0008BD00BF68260020FF20704708B5FFF7E5
S214004B10FBFF002008BD704770477047704710B510
S214004B20044619F00DFD20462FF068FB2046BDE830
S214004B30104030F09DB82FF0CBBB10B5044619F0EE
S214004B40B7FD20462FF0F4FB2046BDE8104030F0BD
S214004B50C3B810B5044615F01DFC204619F006FC37
S214004B6020462FF037FD204630F0DEF82046BDE820
S214004B70104033F065BBFFF7ECBF10B5044615F0E8
S214004B8021FC204619F020FC204631F0C5FB2046CB
S214004B902FF050FD204630F0FBF82046BDE81040D0
S214004BA033F068BB10B5044615F00CFC204619F02F
S214004BB049FC204631F0C0FB20462FF089FD2046F8
S214004BC030F00EF92046BDE8104033F053BB15F028
S214004BD07FBA2FF05BBF10B49DF8044001945DF8D7
S214004BE0044B2FF03BBE70471AF0C6BB70477047A9
S214004BF010B49DF8044001945DF8044B31F0B2BB4C
S214004C00704731F0B9BB1AF04BBB1AF05FBB2FF000
S214004C10E7BD2FF011BE1AF06BBB2FF077BE7047C2
S214004C2070472EF029BF2EF047BF2FF0A5BE2FF0FD
S214004C30C6BE2FF0D8BE10B49DF8044001945DF8AF
S214004C40044B31F09ABB2FF085BE1AF073BB1AF0F6
S214004C5063BB2FF0DCBE30F073B930F07FB92FF0B5
S214004C60C6BF2FF0E2BE33F023BB33F05DBB33F09C
S214004C7069BB33F097BB2FF09DBF18F027BB70477A
S214004C80704782B06B4683E8060093E8060002B0E1
S214004C901AF094BE70472DE9F0419DF818409DF833
S214004CA01C509DF820609DF824709DF82CC09DF83F
S214004CB034E09DF83880CDE90867CDE90DE8CDE908
S214004CC00645CDF82CC0BDE8F04118F089BA70470B
S214004CD07047FEE708B500F02DF8124B12498B42DC
S214004CE012D30020114B12498B4218D3FFF746FA15
S214004CF0186850F82240586840F8224001329868F8
S214004D008242F5D30C33EAE70022F8E71C6844F841
S214004D10220001325C68A242F8D30833E4E700229E
S214004D20F8E700BFDCC20300E8C20300E8C20300E5
S214004D30E8C203006FF00100104B114A10B59A60EC
S214004D40D3F888200F4942F47002C3F8882001F592
S214004D500052106641F2FF7050660220C3F8D00081
S214004D60BFF34F8FBFF36F8F08244FF440330648CE
S214004D70C0F88041D36004600B6110BD00ED00E018
S214004D80004000000080004400E100E0014B18688D
S214004D90704700BFDC100020014B1860704700BF52
S214004DA0DC100020084B1B6F03F00703022B04D017
S214004DB0032B05D0012B05D0FEE7044B186870477F
S214004DC0034BFBE70348704700800050DC100020D0
S214004DD0E0100020002D310108B5FFF7E3FF054B7A
S214004DE01B6FC3F301330133B0FBF3F0024B1860C3
S214004DF008BD00BF00800050D81000200048704753
S214004E0000B4C404014B1868704700BFE0100020CF
S214004E10054B1860054B1B6F03F00703032B01D1EE
S214004E20FFF7DABF704700BFE01000200080005098
S214004E300020704700487047002D3101174B9868D6
S214004E40C0F304400C2822D8DFE800F00921212115
S214004E502121071719211B1D1F00114870479B6849
S214004E6003F04073B3F1807F13D0B3F1007F12D00C
S214004E700C4A002B08BF104670470B4870470B487B
S214004E8070470B4870470B4870470B487047002028
S214004E9070470A4870470A48704700BF0040015AEA
S214004EA0405DC60000093D000024F400C0EA210170
S214004EB080BA8C010048E801005A620280841E0015
S214004EC040420F004FF4004070474FF47A7070472E
S214004ED0014B1868704700BFE4100020BFF34F8FE7
S214004EE00549064BCA6802F4E0621343CB60BFF381
S214004EF04F8F00BFFDE700BF00ED00E00400FA059D
S214004F0000239B6AB3F5804F03D21968064A914284
S214004F1003D00023037083607047012202709A68F2
S214004F209B694260F7E700BF07B0CD5E30B500244E
S214004F30A36A87B0B3F5804F054601910FD20123CF
S214004F4003A88DF80C30CDE90444FFF7D9FF059B84
S214004F505B0504D5A36A28461B6C0199984707B0E1
S214004F6030BD000073B5464B04461A781AB10222CB
S214004F701A7002B070BDCDE900220028F9D00126D3
S214004F801E7001F048F83F4D3F4B186012F04CFC85
S214004F902B785BB900F026FA40B93C4808233C4A17
S214004FA03C4900680BF07CF900B92E703A4B5A6801
S214004FB0A2603A4A9A601A6E22605A6E62601B6E4F
S214004FC05C043DD5364AD368D807FCD4354B1A68FE
S214004FD0531C3AD04FF480139340334A136604238D
S214004FE0314C23664FF48063236600F03DF90130B0
S214004FF00BD000F039F940F2011398421FBF4FF46E
S214005000804323664FF4004323661023264C4FF05C
S214005010804223664FF400536846236601A9226641
S2140050206366FFF783FF009B2366019B63662B780E
S214005030002B9ED0164B1A6822665B68636698E75C
S2140050401A4AD368D907FCD4C0E7194B1B78002B43
S214005050C5D1184B5A68144B12B94FF480121A6611
S214005060154A526812B94FF400121A66134B5B6861
S214005070002BB4D14FF480020B4B1A66AFE700BF8B
S214005080822600208026002084260020F0100020A3
S21400509078260020007108000080004455CEAC0041
S2140050A000000440E8100020009000440000045077
S2140050B0812600200080055000C0055000000650E4
S2140050C038B5214D04462B78012B02D001232B70D6
S2140050D038BD0028FCD000F0C7F8013009D000F039
S2140050E0C3F840F20113984203D0184AD368DB078E
S2140050F0FCD42268164B1A6662685A66A268D40701
S21400510044BF00229A60134B1A68013213D1124A28
S214005110127882B911494968C80748BF1A60104A10
S2140051205268D10744BF01221A600E4A5268D2075D
S21400513044BF02221A6012F08FFB0B4B186800F077
S21400514070FF0023C3E700BF822600200000044053
S21400515000800044E81000208126002000800550D2
S21400516000C00550000006508426002070B50024BC
S214005170A36AB3F5804F1ED2104E337813F0FD05A8
S21400518017D10F48FFF7EEFE08214FF480330D4A83
S2140051900D48C2F88011C36011600C4A1361AB6AF7
S2140051A0DB69984704460648FFF78AFF0CB90123D7
S2140051B03370204670BD4FF48174FAE781260020D4
S2140051C06C26002000E100E000A0004400900044AF
S2140051D013B51F4B1B7803B9FEE700231D4CCDE922
S2140051E000336A4608231C4920680BF059F8F0B9CA
S2140051F01A4AD2F84031D2F840211F2B4FF0010353
S21400520010D9203A9340019A1343019308236A4623
S214005210114920680AF0FAFF4FF00053104A1A604E
S214005220FFF75CFE9340009A13430093EEE70D4BA6
S2140052309842F1D1094AD2F84031D2F840211F2BCA
S2140052404FF0010302D9203A9340DEE79340ECE7A3
S21400525082260020F0100020007108000080004424
S2140052600B020FF00BE000F01FB500239A6AB2F5B0
S214005270804F04D340F2011005B05DF804FB126BBA
S214005280B2F5804FF6D2012201A8CDE902338DF89F
S2140052900420FFF735FE039BDB03EBD5029B1A0EBB
S2140052A0E8D0012A03D1C3F307430A2BE2D900232F
S2140052B09B6A1B6B1B6C9847DEE7002303607047F6
S2140052C003680B600160704705490A6813180548B3
S2140052D083428CBF4FF0FF320B601046704700BF12
S2140052E0EC1000200000012008B504220123032151
S2140052F0002000F0E5FE002000F0E1FE01221B4B3E
S2140053000521C3F844240C2000F05CFC0C2000F0BF
S21400531007FB174B00F5D520D3F8F02000F2FC4031
S21400532042F00102C3F8F020D3F8FC2042F080726D
S214005330C3F8FC200F4AA3F55D431A600E4B022209
S214005340B0FBF3F00D4B01381861C3F8F0204FF4B2
S2140053508072C3F804234FF06043094A0020C3F864
S214005360B02F084AC3F8802E08BD00BF00D00350F7
S21400537000ED00E0FF030040F8590D00000004E0D7
S21400538055CEACC5090001004FF060420123D2F8AB
S214005390001E03FA00F00843C2F8000E0020704713
S2140053A04FF06043D3F8802E30B5D20715D50124D0
S2140053B00B4D8440D5F8FC2042F08072C5F8FC20E6
S2140053C0D3F8002E2243C3F8002E53F82020002ADC
S2140053D0F0D003F82010002030BD1120FCE700BFFD
S2140053E000ED00E0024B1968024B18680AF038BE60
S2140053F0F4100020F01000207047000037B592002F
S21400540004460D46019233F0CFFF431C0BD060B923
S21400541029462046019A33F04DFE0028044808BF6E
S214005420002003B030BD0348FBE70348F9E700BFA0
S21400543010E000F021E000F024E000F013B5044690
S21400544001A800F0B9FF9DF80630012223804FF432
S214005450807300206380054B9B680A3303F01F03AC
S21400546002FA03F3636002B010BD00BF0080E00FD5
S21400547000F074BE08B500F065FE002008BD10B54B
S214005480044644EA010313F00303084609D1934295
S21400549001D1002010BD54F8231040F8231001332A
S2140054A0F5E72146920033F015FEF2E710B5044604
S2140054B033F082FF431C15D0B0B90C4B20469B68D6
S2140054C00A3303F01F020123934023F0030323440F
S2140054D0984201D1002010BD50F8042B0132F7D0BD
S2140054E00348F8E70348F6E70348F4E70080E00FD0
S2140054F00EE000F021E000F024E000F008B500F037
S2140055007BFD014B186008BD182D0020014B186864
S21400551000F076BD182D00207047000041F671336C
S21400552010B5104C104AA0428CBF4FF480140024D3
S214005530D169D363936801F4803123F44013234385
S21400554093600A4B98420A4BD3F818228CBF42F05D
S214005550020222F00202C3F8182211B10022024B06
S214005560DA6310BD005A62020000035080F0FA02AF
S21400557000C007502E4B98424AD022D82D4B984256
S21400558040D014D82C4B984239D00AD82B4B98428E
S21400559032D02B4B98422FD02A4B98422CD000204A
S2140055A07047294B9842FAD1284B186F7047284B02
S2140055B098422AD0274B9842F1D1244BD3F880004A
S2140055C07047254B98422BD009D8244B984223D0BD
S2140055D0234B9842E3D11D4BD3F88C007047214BE8
S2140055E0984221D003F5740303F510539842D6D1A0
S2140055F0164BD3F898007047144B986D7047134BB2
S214005600586E7047114B586F7047104B986F704725
S2140056100E4BD3F8840070470C4BD3F888007047C5
S2140056200A4BD3F890007047084BD3F894007047A5
S2140056300048E8010024F400C0CF6A0080841E0001
S21400564000093D0040420F00405DC6000080E00FAC
S214005650C0EA210180BA8C01007E560380D5430241
S214005660006CDC020090D00308B5FFF7C7FBBDE86E
S21400567008400021FFF752BF38B5124B0546D3F855
S21400568020310C4603F00703013B032B17D8DFE855
S21400569003F0020A0E12FFF779FB042305B1286017
S2140056A004B1236038BDFFF7ADFB0323F6E7FFF731
S2140056B0C5FB0523F2E7FFF7BDFB0223EEE7002359
S2140056C01846EBE70080005037B50C460021124A1A
S2140056D00191D2F88021054602F00302022A0ED07C
S2140056E0032A11D0012A14D101A8FFF7C5FF0D2304
S2140056F00DB1019A2A6004B1236003B030BDFFF7F4
S2140057009DFB05230190F3E7FFF794FB022301902E
S214005710EEE70B46ECE700BF0080005038B5104BB4
S2140057200546D3F840310C4603F00303022B0BD09A
S214005730032B0DD0012B0FD1FFF7C4FB082305B1B7
S214005740286004B1236038BDFFF7C2FB0723F6E7E5
S214005750FFF7BBFB0923F2E700231846EFE700BF7D
S2140057600080005038B5104B0546D3F860310C4623
S21400577003F00303022B0BD0032B0DD0012B0FD10C
S214005780FFF7A0FB082305B1286004B1236038BDED
S214005790FFF79EFB0723F6E7FFF797FB0923F2E7E1
S2140057A000231846EFE700BF0080005038B5134BC3
S2140057B00546D3F800320C4603F00703013B032BE3
S2140057C018D8DFE803F0020A0E12FFF77BFB082367
S2140057D005B1286004B1236038BDFFF779FB0723C5
S2140057E0F6E7FFF772FB0923F2E7FFF7F5FA0C235B
S2140057F0800AEDE700231846EAE700BF0080005065
S21400580038B5134B0546D3F808320C4603F00703A9
S214005810013B032B18D8DFE803F0020A0E12FFF74D
S21400582051FB082305B1286004B1236038BDFFF79B
S2140058304FFB0723F6E7FFF748FB0923F2E7FFF7DE
S214005840CBFA0C23800AEDE700231846EAE700BFF0
S2140058500080005038B5104B0546D3F840320C4651
S21400586003F00303022B0BD0032B0DD0012B0FD11B
S214005870FFF728FB082305B1286004B1236038BD74
S214005880FFF726FB0723F6E7FFF71FFB0923F2E7E0
S21400589000231846EFE700BF0080005038B5104BD5
S2140058A00546D3F800310C4603F00303022B0BD059
S2140058B0032B0DD0012B0FD1FFF7A4FA032305B15C
S2140058C0286004B1236038BDFFF702FB0723F6E724
S2140058D0FFF7AEFA0623F2E701230020EFE700BF4A
S2140058E000800050032814D005D8012805D00228CF
S2140058F009D0002005E00F28FBD1084B186FC0F335
S214005900013001307047054BD3F89000C0F30460B7
S214005910F7E7024B186FC0F38020F2E700800050D4
S2140059201FB500230193252817D8DFE800F0131AC7
S2140059301D262B353A50555A5F646977161A3F165E
S21400594016551A262B26351A5026773A3A3A3A260C
S21400595026265A5FFFF726FA0190019805B05DF8F3
S21400596004FBFFF739FAF7E7FFF71CFA02460220B6
S214005970FFF7B8FFB2FBF0F0EEE7FFF72DFA0246AE
S2140059800320F5E7FFF728FA02460320FFF7AAFFF1
S214005990B2FBF0F04008DFE7002101A8FFF794FE15
S2140059A0DBE7002101A8FFF767FED6E702934FF07A
S2140059B0E0231B695B0705D5FFF70EFA0290029BF2
S2140059C00193CAE703A902A8FFF7A8FEF7E700219C
S2140059D001A8FFF7A3FEC0E7002101A8FFF7C2FE5B
S2140059E0BBE7002101A8FFF7E1FEB6E7002101A80A
S2140059F0FFF706FFB1E7002101A8FFF74FFFACE76E
S214005A00094BD3F8803003F00303022BA9D0032BF5
S214005A1001D00020A0E7FFF711FA9DE7002101A8BA
S214005A20FFF718FF99E700BF0080005008B5012077
S214005A30FFF776FFBDE80840034988428CBF022185
S214005A400121032000F002B880F0FA02032810B506
S214005A500C4627D004D8012804D0022817D010BD41
S214005A600F28FCD1FFF700FE00F028F8124B013C8F
S214005A70196F21F4405141EA04341C67FFF7ACF972
S214005A800021FFF74BFDBDE81040FFF7CFBF0A4BE4
S214005A90013CD3F8901021F0F85141EA0464C3F8B1
S214005AA09040DCE7044B013C196F21F4806141EA29
S214005AB084241C67D3E700BF008000500221032027
S214005AC0FFF7C4BF1FB500230193252821D8DFE8C0
S214005AD000F013202020202A2F454A4F54595E718B
S214005AE020203420204A202020202A204520712FE4
S214005AF02F2F2F2020204F54314B1B6F03F007030E
S214005B00013B032B05D8DFE803F00C02080A042348
S214005B100193019805B05DF804FB0323F8E706231C
S214005B20F6E70223F4E7002001A9FFF7CDFDF0E732
S214005B30002001A9FFF7A0FDEBE702934FF0E0235A
S214005B401B695B0705D5FFF747F90B230393039BF8
S214005B50DEE703A902A8FFF7E1FDF8E7002001A9A8
S214005B60FFF7DCFDD5E7002001A9FFF7FBFDD0E736
S214005B70002001A9FFF71AFECBE7002001A9FFF7D6
S214005B803FFEC6E7002001A9FFF788FEC1E70C4BE1
S214005B90D3F8803003F00303022B03D0032B05D089
S214005BA00023B5E7FFF718F90B23B1E7FFF746F92F
S214005BB00523ADE7002001A9FFF74CFEA9E700BFCB
S214005BC00080005070B50C46252848D8DFE810F055
S214005BD0260047004700470047005B006B009B001D
S214005BE0AB00BB00CB00DB00EB00FC00470047002F
S214005BF07B0047004700AB004700470047004700D0
S214005C005B0047009B004700FC006B006B006B00CE
S214005C106B00470047004700BB00CB008B1E042BE1
S214005C202ED8DFE803F02A1D032D270000250226C4
S214005C30FFF71AFDFFF742FF6B4A136F23F00703C7
S214005C4033431367FFF7C8F80021FFF767FCFFF739
S214005C50EDFE25B9032C02D10122644B9A6270BD79
S214005C600122634B0E469D6A03F58053C5F340053B
S214005C709A62DDE700250426DAE700250126D7E745
S214005C8000252E46D4E78C1E0B2C8CBF0021594BCA
S214005C90554A98BF195DD2F8803123F003030B43B1
S214005CA0C2F88031DBE78C1E032C8CBF0021524BE0
S214005CB04D4A98BF195DD2F8203123F007030B43F5
S214005CC0C2F82031CBE70B2912D00ED8CC1F022CFD
S214005CD0C5D84A4A536A43F0010353624FF0E022A4
S214005CE0136923F004031361B9E70E29B7D1F0E76F
S214005CF0424A536A23F0010353624FF0E0221369CD
S214005D0043F00403EFE7CC1F022C8CBF00213C4B72
S214005D10354A98BF195DD2F8403123F003030B4390
S214005D20C2F840319BE7CC1F022C8CBF0021354BBC
S214005D302D4A98BF195DD2F8603123F003030B4358
S214005D40C2F860318BE7CC1F052C8CBF00212E4B90
S214005D50254A98BF195DD2F8003223F007030B439B
S214005D60C2F800327BE7CC1F052C8CBF0021274BE6
S214005D701D4A98BF195DD2F8083223F007030B437B
S214005D80C2F808326BE7CC1E042C8CBF0021204BD7
S214005D90154A98BF195DD2F8003123F003030B4370
S214005DA0C2F800315BE705290CD00B2914BF00218F
S214005DB002210D4AD2F8803023F003030B43C2F8C9
S214005DC080304CE70321F4E7CC1F022C8CBF002167
S214005DD0104B054A98BF195DD2F8403223F00303F2
S214005DE00B43C2F840323AE70080005000E0005013
S214005DF000C000507C9403008894030000C0075045
S214005E008C9403008C9403008F9403008F940300FB
S214005E10959403008C94030038B50546FFF7AAFB5B
S214005E20214B04465A68012A04D120494A609A69DF
S214005E309207FCD10020FFF745FE042803D1FFF7A8
S214005E4013FCFFF73BFE1A4A24F04073954221D01C
S214005E50184A954221D0184AD16811F0060FFBD196
S214005E6090689360916803F4F81301F4F8118B427C
S214005E7016D12846FEF790FF0020FFF723FE0428E1
S214005E8010D1FEF7A9FF0021FFF748FBBDE8384018
S214005E90FFF7CCBD43F00073DDE743F08073DAE72D
S214005EA09060E9E738BD00BF00C0015000E0015037
S214005EB040420F0080841E000000015070B504466A
S214005EC00020FFF7FFFD03287CD045F60E030221D5
S214005ED0414AC2F88030414B9962012103F5805354
S214005EE09962936DD903FCD4D4E900131B0543EAE9
S214005EF00163E17B94F822500B43217B94F82360E6
S214005F0043EA0143617B43EA0133A17B43EA811301
S214005F1013619169D4E904031B0643EA806301F028
S214005F2000410B43A17EE07E0B43217E43EA014302
S214005F30617E43EA01239361136AE26923F00D034D
S214005F40002A0CBF0021082143EA020343EA80032B
S214005F50214A43EA0103136294F820304FEA4313C0
S214005F6031D1906A94F8211020F0330043EA0113EF
S214005F70034343F001039362194B916D33EA010129
S214005F80FBD10221154B9962936D5B00FCD410691E
S214005F90A36820F4700040EA035010614FF00042FE
S214005FA00E4B9A611DB9022203F580539A6216B908
S214005FB001220C4B9A6294F824301BB1064B0A4A15
S214005FC0C3F8802070BD916A21F0330131430B4342
S214005FD043EA45039362EEE700C0005000D000504D
S214005FE00300014000E00050F1A7FFFF014B93F9CA
S214005FF000007047CC2D0020EFF3108072B670477B
S21400600000B962B67047302383F3118870470023C7
S21400601083F311887047EFF31180302383F31188E0
S214006020704780F311887047704770470A4A10B56A
S2140060301369044643F00403136103F001F9FFF704
S214006040F3FF30BFFFF7F1FF03F00EF91CB9BDE810
S2140060501040FEF7C1BE10BD00ED00E0084A10B5C6
S2140060601369044643F00403136103F0E9F830BFF4
S21400607003F0FAF81CB9BDE81040FEF7ADBE10BD3F
S21400608000ED00E070477047034A0179D36E23F0B5
S21400609030030B43D36670470040005070B505468A
S2140060A014460E46FFF7A8FF296881EA040202EAB2
S2140060B006044C402C60BDE87040FFF7A1BF704757
S2140060C0F8B504460D461F4616464AB101238B40D6
S2140060D03021194A01FB0022FFB141F21001535052
S2140060E004EB4403072D4FF00F014FEA031317D8B4
S2140060F0A80006FA00F2814010481844FFF7CEFFC9
S21400610056B9012130230C4801FA05F503FB0400BB
S21400611077B141F21003C550F8BD42F21001DEE738
S214006120A5F10800800006FA00F281400448E4E782
S21400613042F21003EFE700BF00C0035004C0035054
S2140061400CC0035041F67132034BDA63012203F5AB
S2140061500053DA60704700BF0000035041F671320A
S2140061600121044BDA6303F50052D1600022DA63A2
S214006170704700BF00000350013825289ABF024B25
S214006180185C0020704700BF9A9403002338032849
S21400619003D804299CBF024B595C0846704700BFD1
S2140061A0C0940300021E30B54FF000000CBF0C2553
S2140061B0042547F60774084952B9831D51F8233061
S2140061C0234023B101308542F6D14FF0FF3030BD79
S2140061D000F11203F2E700BF0080035038B5C2F3A7
S2140061E00625044602F0070241B90C4B42EA052296
S2140061F042F44022063443F8242038BD114628468F
S214006200FFF7C4FF01462846FFF7B6FF034B41EAF7
S2140062100020123443F82400EFE700BF008003504C
S2140062200A4392B20021FFF7D9BF3AB122F0030227
S21400623002F1A04202F5603209B910607047000210
S214006240FBE74FF050234FF400321A677047000008
S214006250014BD3F894007047004000504FF0B04315
S2140062605A6812B19A6A002AFAD17047CB784A78EF
S21400627010B55B010C7843EA82030A79234343EAAC
S21400628002130C22424302F1B0421363012C02BFF8
S2140062908A78024B43F8202010BD00BFD080035000
S2140062A008B54FF0B0435A6802B960B15B680BB1ED
S2140062B0FFF7D4FF4FF0B04130B10120074B5860D4
S2140062C0FFF7CCFFC86008BDFFF7C8FF0223CB600E
S2140062D0FFF7C4FF0122024B5A60F4E70010005893
S2140062E0002000584FF0B0435B6870B50BB1FFF765
S2140062F0B5FF0121104B4578596083780679002B4D
S214006300C37814BF02240024002B14BF04220022EA
S2140063104379DB0043EA06132B43234313434FF032
S214006320B0429360054B59600378002B14BF0B46B0
S2140063300223D36070BD00BF002000580010005834
S214006340436813B9416070475B685A68012AFBD1FD
S21400635059607047836813B9816070475B685A68F4
S214006360012AFBD159607047C369032B9FBF00EB1E
S21400637083020133D160C3617047C369042B15D80B
S2140063804FF09842116CC902FCD504339B0013658C
S2140063900168103B116041680C30116050F8041C15
S2140063A0034411604FF09842984200D1704750F86D
S2140063B0041B1160F8E70000054B5B69C3F3851208
S2140063C0827003F03F021B0B42700370704700BFE1
S2140063D000C007500D4B984208D1A3F50033C3F810
S2140063E08411C36D43F08003C3657047084B984221
S2140063F004D1A3F51033C3F89411F2E7054B984285
S21400640004BFA3F52033C3F8A411EAE700800550C3
S21400641000C005500000065070B5054616461C46DE
S21400642019B90320FFF77CFA0146402C1BD003D88D
S214006430DCB1202C1BD070BD602CFCD1042303FBE8
S21400644006F2560806EB4113B3FBF2F3094A203B6B
S21400645002EAC303AA6822F06002AA60AA6814438C
S214006460AC60EB61E7E70623E9E71023E7E70823DC
S214006470E5E700BFF8FF7F00012200F580535A6071
S214006480CB43934003F00A034361416111B900F521
S2140064900050426070470000012200F5805310B59E
S2140064A05A6040F6AA6341F205024361002312498E
S2140064B08360C365C26000F500520361C361C364B4
S2140064C091640E498365884206D00D4CA04203D0E5
S2140064D004F58044A0420BD18842036506D0084BE1
S2140064E0984203D003F58043984201D100234365C8
S2140064F00123536010BD00BFFFFF01000080055060
S21400650000C0055070B50D46FFF7C6FF012300F525
S21400651080567360AB7C04461BB1836843F08043AF
S2140065208360EB7C1BB12046297DFFF753FF2A8A48
S2140065306B7B20461343EA891343E3602B7BD5E944
S2140065400112FFF769FF6B7D1BB1A36843F480332C
S214006550A360AB7D1BB1A36843F40043A360EB7D4F
S2140065602A7E1B07120502F4E00203F0E043134301
S214006570A3656A7E931E012B214B20D89C421AD01D
S21400658003F580439C4218D003F580439C420CBF21
S21400659002234FF0FF3341F2AC5102205B0103F1BE
S2140065A0A04303F570335850032A23D10423F36520
S2140065B02B78636170BD0023EDE70123EBE79C4277
S2140065C014D0104B9C4213D003F580439C420CBF62
S2140065D002234FF0FF3342F2AC5102205B0103F17D
S2140065E0A04303F570335850012ADEE70023F2E794
S2140065F00123F0E7042204F50053DA65D8E700BF6C
S2140066000080055000C0055083691B06FCD5406A13
S214006610C0B2704783695B06FCD5C1637047002033
S21400662070470F2070470F207047002070470F20DC
S2140066307047002070470F207047002070470F20DB
S2140066407047002814BF0F200020704700207047B6
S2140066500020704738B50446054D0BF0CEFE0FCC33
S2140066600FC594E80F0085E80F00002038BD00BF76
S214006670D02D002047F6FF739A42F0B563D0032969
S21400668063D8334BCF0003EBC10013F83110847886
S214006690012913D10025C3781B1B9D4202D3E018A5
S2140066A0C0B2F0BD591B4668A3EB510136F9116024
S2140066B09642D4BF0D4601F1FF33EEE7406800284E
S2140066C0EFD0B0F90010914204DBB0F9021091420D
S2140066D0B8BF114682883B44FF2A19BFC822282625
S2140066E0B0F90620B0F90860A2EB01020CBF012544
S2140066F0002592FBF6F25F782A447B1E934228BF61
S21400670013464FF47A7E00EBC305AE68EA88AC46C3
S21400671011FB02621E4622EAE272013302F5FA72A9
S2140067209F42B2FBFEF204D9BCF80CC00835944573
S214006730EBD200EBC6008088904228BF1046A042ED
S21400674038BF2046ACE7FF20ABE70020A9E700BF34
S214006750D02D00200329F0B553D82B4800EBC104F8
S21400676010F83110636801290FD1E078A4789042C0
S21400677094BFC4EB0001C4EB0201001BCAB2824204
S214006780C8BF002233F91200F0BD002B39D0A17823
S214006790914202D3B3F90200F6E7E178B3F90000BC
S2140067A09142F1D999886478A1F1FF06013C7142C3
S2140067B003F10405E4B2714103F10C071FFA82FCF1
S2140067C0CEB2B44216D805EBC1014FF47A756A43CF
S2140067D0B1F902404968521A04EBD47102EB610227
S2140067E092FBF4F29042CFDBB3F902009042CBDC8E
S2140067F010B2C9E737F831E04E1CE645E3D3314620
S214006800DEE70248C0E700BFD02D00200080FFFF73
S21400681008B50448FFF71EFFBDE8084001200BF04E
S21400682047BE00BFC894030000207047002814BF6E
S2140068300F20002070470120704701207047012874
S21400684014BF0F20002070470F2070477FB514221A
S214006850002101A832F065FC044B01A94FF0FF307F
S21400686002930BF07DFF07B05DF804FB006A18008A
S214006870002307B5CDE90033012369464FF0FF300A
S2140068808DF802300BF0AEFC03B05DF804FB0000A0
S21400689013B50024064A6846536F43F00103536756
S2140068A000948DF80440FFF7EFFB204602B010BDC1
S2140068B00040005008B50248FFF7AEFA002008BDB9
S2140068C000B4C40430B58BB06C46154D0FCD0FC464
S2140068D00FCD0FC495E8030084E80300114BD3F8EE
S2140068E04C21120314D4D3F85041E4B28DF8194069
S2140068F0FFF77CFB204480F308008DF818000A4858
S214006900FEF786FA6846FFF7D9FA00200BB030BDCE
S214006910064B1C884FF6FF739C4208BF8C24E5E7A5
S214006920B49503000080E00F00F049020001E00F7C
S2140069306FF00402502110B50A480B4C12F0800F7D
S214006940D3B21BBF03F00F03043BA3181B1802F1BE
S21400695001020CBF83F8001319763D2AEED1002001
S21400696010BD00BF00ED00E000E100E000F078B8E8
S21400697038B502F0E9FD0446E0B902F0FFFE4FF438
S214006980167343430C4803F5742303F23F23B3FB0B
S214006990F0F30A4A0A4913600A220D680948013AC8
S2140069A012F0FF0240F8043BF9D103EBC3022B447C
S2140069B013440B60204638BD40420F002C2E0020AA
S2140069C0F82D0020FC2D0020012208B5034B1A707C
S2140069D002F0AEFE024B186008BD00BFF42D00208A
S2140069E0282E0020F8B5144C237823B302F0A0FE1E
S2140069F0124B134D1B68134EC01A012838BF0120D6
S214006A00114B124F18602B7856F8232046F82300B7
S214006A10111A3A680E48521A0A213A600932B2FB35
S214006A20F1F20133DBB20260B3FBF1F201FB123389
S214006A302B7000232370F8BDF42D0020282E002094
S214006A40242E0020FC2D0020F02D0020F82D002004
S214006A502C2E0020014B1868704700BF2C2E0020FB
S214006A6020230949094A81F82D33094B03F50050C4
S214006A70426702674FF40050C1F88401486003F58E
S214006A8080535A67704700BF00E100E0010000A095
S214006A9000C00050044B9A6DD20702D40028FAD1E9
S214006AA070470120704700BF00C000500C4B10B567
S214006AB01C6FE20707D5012203F500531A67FFF79C
S214006AC091FF02F035FB14F000521CBF054B1A670D
S214006AD0002CBEBF4FF00042024B1A6710BD00BF2D
S214006AE000C0005000E00050FFF7E0BF10B50446BD
S214006AF0FFF782FA024B1C60FFF782FA002010BDF7
S214006B00302E002010B5FFF777FA034B1C68FFF70E
S214006B1077FA204610BD00BF302E002007B530B9EA
S214006B20CDE90012FFF7EEFFDDE9001230B1436851
S214006B3023B1006803B05DF804EB1847232003B0C8
S214006B405DF804FB30B51C4685B058B9CDE9001297
S214006B50FFF7D8FFDDE9001204B903AC20B9232003
S214006B6005B030BD03B903AC8568002DF7D02346C9
S214006B700068A847F4E707B501228DF807100DF165
S214006B800701FFF7CBFF03B05DF804FB0B46014699
S214006B901846FFF7F0BF00230122FFF7D3BF00001F
S214006BA00EB40FB505AB53F8042B039318B9019236
S214006BB0FFF7A8FF019A0146039B064807F056FD1B
S214006BC00028D4BF3720002004B05DF804EB03B0E3
S214006BD0704700BF8D6B000010B5002400F028F849
S214006BE00348044B84604360FFF780FF204610BDD7
S214006BF0382E0020F96B000007B5044B0093044BB9
S214006C001B8800F02BF803B05DF804FB342E002040
S214006C1014110020014B188000207047141100202A
S214006C204FF06042D2F8803E1B02FBD47047000053
S214006C3008B5074B1A6842B9012208201A60FEF709
S214006C40A3FB0449044802F051F9002008BD00BF28
S214006C504C2E00202C110020442E00202DE9F04759
S214006C600F4615461E46002402F1040802F10909E3
S214006C704FEA132A5FFA88F84C4502D30020BDE895
S214006C80F0871CB3012C05D141460820FEF788FB8F
S214006C900134F1E7022C1BD0032C01D1F1B2F4E74A
S214006CA0042C17D0052C04D1089B13F8011B08935D
S214006CB0EBE7AB1DA3420FD0EB1DA3420CD005F1B2
S214006CC00803A3420AD0BB1F195DDEE75B21DCE7A1
S214006CD0D121DAE75146D8E75A21D6E75D21D4E735
S214006CE090F82A3001223BB190F82E30022B03D1C7
S214006CF080F82E20184670471346FBE780F82410CD
S214006D00704790F82400704790F82B0070470000FA
S214006D10002808DB0123420900F01F0003FA00F0F8
S214006D20014B43F82200704700E100E0002809DB31
S214006D300122430900F01F0002FA00F0024A603305
S214006D4042F82300704700BF00E100E0F8B50446B3
S214006D500D4690F82B3081B173B990F82C60FFF790
S214006D604BF905460121304602F03CF82846FFF76D
S214006D7047F9012384F82B30F8BD002BFCD090F89F
S214006D802C70FFF739F906462946384602F02AF8ED
S214006D903046FFF735F984F82B50EDE770B504461A
S214006DA00568FFF7AFFE844202D10020FFF79EFE83
S214006DB095F92800FFF7BAFF95F92830002B0DDB70
S214006DC001215A0903F01F0301FA03F31449203284
S214006DD041F82230BFF34F8FBFF36F8F95F929002C
S214006DE0FFF7A4FF95F92930002B0DDB01215A0986
S214006DF003F01F0301FA03F30949203241F8223059
S214006E00BFF34F8FBFF36F8F00232846C4E90033CC
S214006E10C4E90433A360EB68BDE87040184700BFC0
S214006E2000E100E02DE9F047044616460D4690F8CE
S214006E302480FFF7F0F894F82A2003469AB1FFF76B
S214006E40F0F894F82D90FFF7D7F80746012148464A
S214006E5001F0C8FF3846FFF7D3F8FFF7DCF800224A
S214006E60034684F82A201846FFF7DBF82E44B8F1CC
S214006E70000F23D1AE4205D1204663680121BDE84C
S214006E80F047184794F82630002BF3D020462368A6
S214006E9015F8011B98470028ECD0BDE8F08794F859
S214006EA026305BB12B780A2B03D10D2120462368B0
S214006EB098472046236815F8011B9847AE42EED146
S214006EC0DAE72DE9F7434FF00009044690461E46E0
S214006ED0C3F800904F1E3368434505D2FFF79BF872
S214006EE0A269C2B9FFF79DF894F827305BB9112361
S214006EF0012220460DF107018DF80730FFF792FFBB
S214006F00012384F827303368002B0CBF1B20002099
S214006F1003B0BDE8F083E16922698A5C07F8012FB7
S214006F202569226A0135954208BF4D46A26925614A
S214006F30013AA261FFF775F8A368204698473368C0
S214006F4001333360C7E708B5FFF76CFF002008BDC4
S214006F50F8B51F46536806460C461546002B5BD010
S214006F609368002B5AD030220021204632F0D9F800
S214006F706B682B4AE361AB68204623622B7B84F860
S214006F802430AB7B276084F8253040F20113E3847D
S214006F90069B00276360079BA360089BE3602B7833
S214006FA084F828306B7884F829301E4B3460736080
S214006FB01D4BB3601D4B33611D4B73611D4BF3605E
S214006FC01D4B3362012384F82E30B2611B4AF261F6
S214006FD09DF8282084F82D209DF8242084F82A3057
S214006FE084F82C20697B84F82B70FFF7AFFE95F9A8
S214006FF00100FFF79BFE95F90100FFF789FE95F962
S2140070000000FFF793FE95F90000FFF781FE30467B
S214007010FFF76CFD3846F8BD2220FCE72120FAE792
S2140070204D6D0000476F0000C36E0000FD6C000051
S214007030036D00009D6D0000E16C0000096D00000E
S21400704010B50446FEF7E7FFA269236A9A4203D208
S214007050FEF7E7FF012010BDFEF7E3FF0020FAE78A
S21400706037B504460D4600E000BFFEF7D4FF94F89F
S214007070253002466BB1132D07D1002384F8263045
S21400708003B0BDE83040FEF7CCBF112D01D101237F
S214007090F4E76369E1691046CD54A169636901317B
S2140070A0A161216A01338B42636104BF00236361DF
S2140070B0FEF7B7FF042384F82E3094F825307BB112
S2140070C0A269236A9A420BD11323012220460DF1AE
S2140070D007018DF80730FFF7A5FE002384F8273058
S2140070E003B030BD90F82A3073B5044603F0FF01B4
S2140070F0A3B9436801919847012384F82A3094F88D
S2140071002D60FEF779FF05460199304601F06AFECC
S2140071102846FEF775FF022384F82E3002B070BDB5
S214007120026BD36C43F00403D364704710B5044677
S214007130026B93695906FCD5002394F836101A465C
S21400714094F83500FEF7BCFF002394F838101A4672
S21400715094F83700FEF7B4FF94F83D30DA0707D509
S214007160002394F83A101A4694F83900FEF7A8FF60
S21400717094F83D309B0707D5002394F83C101A4638
S21400718094F83B00FEF79CFF206B0021FFF774F994
S214007190002010BD08B5006BFFF73CFA002008BDC4
S2140071A0036BDA6C19B142F00102DA64704722F020
S2140071B00102DA64012203F500539A647047000066
S2140071C02DE9F0414FF001081C46574B86B002935C
S2140071D0564B0C9D0193564B174600930A46CDE935
S2140071E003882946534BFFF7B3FE0646002875D1A1
S2140071F0236804222B63237985F83430A17985F837
S2140072003610607985F83500237A85F83830E379CA
S21400721085F83730A37A85F83A30637A85F83930BE
S214007220237B85F83C30E37A85F83B304346FEF70F
S21400723047FF43460222217AE079FEF741FF3E707F
S21400724039462068FFF75EF91421627B3A4B03EB60
S2140072504210C0F8AC1594F806C061792E3203EBE4
S214007260421341EA0C415960227AE37943EA024329
S214007270C0F8BC3585F83D607B7E032B52D8DFE82E
S21400728003F01F02314C0123002785F83D30002310
S2140072900222A17A607AFEF713FFA17A627A637BF4
S2140072A042EA014241F2B4515B0103F1A04303F507
S2140072B070335A500422236803F58053DA65A7B961
S2140072C06379052185F83530A37985F8363020684E
S2140072D0C36C43F00403C364FFF7CEF8304606B031
S2140072E0BDE8F081022385F83D3000230422217B8F
S2140072F0E07AFEF7E5FE41F2AC520221637B5B01C9
S21400730003F1A04303F570339950217BE27A42EAF9
S214007310014241F2B8515A50D2E70323012785F8BB
S2140073203D30B4E72326D9E72D7100002171000017
S214007330A17100009571000000C00350036B10B5EA
S2140073409B690446190609D5FFF77AFEB0B1206B93
S214007350FFF75AF901462046FFF782FE236B9A6C28
S214007360D20711D5012103F5005291649B699B0653
S2140073700AD52046BDE81040FFF7B4BE226BD36C9A
S21400738023F00403D364E9E710BD000010B51C46E3
S214007390044B186807F0EAF9002820600CBF1B2091
S2140073A0002010BD3411002007B5044B00931123B4
S2140073B0FFF754FC03B05DF804FB00BF702E0020FE
S2140073C010B5FFF735FC0F4C206007F00FFA2022AF
S2140073D00D4901230D4807F0D7F90D4B18600D4BEA
S2140073E0204663600C4BA360FFF780FBFEF704FEAD
S2140073F001210446084601F0F5FC2046FEF700FE93
S214007400002010BD742E0020502E0020E2950300B0
S21400741034110020A97300008D73000000F0FD03F6
S214007420112B05D0182B03D0A0F17D03012B07D814
S2140074300122044B80F020001A70034B18707D2048
S214007440704700BF902E0020912E0020F8B50E4603
S2140074501446204B00B3204A2049107000221A70B0
S21400746022700A704FF6FF721D4B1A801B4D2B7848
S214007470EBB91B4F3046398800F0C7FA164A3880F9
S2140074801378013BDBB213706BB901232B703046C7
S214007490BDE8F840FFF7C2BF1A78002AE6D0187099
S2140074A0104B1878F8BD237801332370EFE7012BD3
S2140074B005D102232B700A4B1888000AE8E7022B36
S2140074C004D103232B70064B1878E1E7FF237E20B8
S2140074D02370E7E7902E00208C2E0020922E0020AE
S2140074E08E2E0020912E00202DE9F047394E88463A
S2140074F0337817465BB9384A1370384A1370384ADF
S2140075001370384A13704FF6FF72374B1A807D2877
S2140075104FD02CD8182850D01A2852D00022314BE1
S2140075202D4D1C781A702B78DFF8B490DF2B9CBF9B
S21400753001332B702B784440022B12D9DFF8A8A019
S21400754099F80000BAF8001000F05FFA2B78AAF855
S2140075500000DF2B9FBF99F80020023B88F8002030
S2140075603B701E4B1A781C7089F8002006E07E28B7
S214007570D4D1194B1B781BB91A4A1370202011E07E
S214007580FF2B20D0184A1188154A1078134A127813
S21400759002EB0022914218D1022B18D9DF2B8CBFA8
S2140075A07A200020A0F12002534253413370BDE8F8
S2140075B0F08720200B4B1870F4E7FF22064B1A705A
S2140075C0DCE77420EEE77720ECE77620EAE7792020
S2140075D0E8E700BF842E00208B2E0020862E002099
S2140075E0872E00208A2E0020882E0020002808BF24
S2140075F042200A44914200D1704711F8013B4340B3
S21400760001F8013C00F00103C0F34700002BF1D065
S21400761080F0B800EEE7000008B500F099F8044BDB
S21400762008B1188008BD4FF6FF721A80FAE700BF4F
S214007630822E002010B5074C208850B100F088F844
S2140076402388C01A044B00B21B889842B4BF00209F
S214007650012010BD822E0020802E00204FF07E627A
S2140076604FF6FF732DE9F041B2F84670B2F8446069
S214007670154D9F4208BF4FF448679E4208BF4FF41F
S214007680C8762C88DFF8448050B164002C802B88A4
S214007690BB4215D92F800023A8F80030BDE8F08142
S2140076A0B8F80030002BF2D000F052F8B8F80030EE
S2140076B0C4EBC404C01A80B204EB8004E408E5E717
S2140076C0B34238BF2E80E6E7802E0020822E0020B0
S2140076D008B500F03DF84FF07E634FF6FF72B3F842
S2140076E05430934208BF4FF47A73184410F47F6FF7
S2140076F0C0F3071208BFFF22014B1A7008BD00BF77
S214007700852E002010B5084C237843B100F020F8F1
S2140077102378C3EB101003065CBF00232370207889
S214007720B0FA80F0400910BD852E002007B502F0A3
S2140077300BF86A4602F06EF818B15221034800F0C2
S21400774019FADDE9000103B05DF804FBF8950300C3
S21400775008B5FFF7EBFF80B208BD08B5FFF7E6FFF8
S21400776008BD08B5FFF7F9FFFA23B0FBF3F080B2C7
S21400777008BD0120704704207047000008B501F0DE
S214007780E3FE18B17A21024800F0F4F9002008BDA3
S214007790F895030008B500F049F90E4A536A43F419
S2140077A070235362EFF308834FF0CD310A4A043B4F
S2140077B093420BD20222094B1A6700F085FBFFF7B3
S2140077C0DDFFBDE808400648FEF744BF43F804194D
S2140077D0EEE700BF00ED00E0000000200040005093
S2140077E0C894030040F2016000F0A6B970477047E5
S2140077F008B510B1FFF7FAFF08BDFFF7F8FFFBE783
S214007800704770477047032000F051BB0120704757
S21400781007B5042200200DEB020109F019FD04282B
S21400782004D04FF4BF71044800F0A4F9019800F0AA
S214007830E7FA03B05DF804FBF8950300102870B56E
S21400784022D00DD8032801D9002070BD01380228A7
S2140078501AD8DFE800F002172F000023022215E0F6
S2140078602038C3B2032BEFD80328EDD801A353F872
S21400787020F000BF5B78000085780000B578000037
S214007880B17800000123E9E7002303220B490C4DE1
S2140078900C680021C8B28442D6D955F8200028B119
S2140078A0067A964202D1467A9E42CED00131F1E760
S2140078B00323D3E702231A46E8E700BFD09303006A
S2140078C0B410002007B50191FFF7B8FF019918B969
S2140078D0012003B05DF804FB00680028F8D0FFF72D
S2140078E05AF90028F5D01B28F2D12620F1E707B573
S2140078F00191FFF7A3FF50B1006840B10199FFF76F
S2140079003AF9003818BF012003B05DF804FB0120E7
S214007910FAE7000010B5FFF791FF044630B1037A8E
S214007920022B03D103680BB11B6823B940F24A212E
S214007930064800F01FF923681B681B6B986900F463
S2140079404830A0F500535842584110BDF895030042
S21400795010B5022104460020FEF734F9184B9A6A47
S21400796022F001029A629A6A42F002029A629A6DC4
S2140079705100FCD49A6DD20312D49A6922F47F4245
S2140079809A619969220292B20A439A619A6924041A
S21400799022F47F029A619A6904F47F0414439C617E
S2140079A0074B0321BDE810409A6A002022F002022D
S2140079B09A629A6A42F001029A62FEF703B900BF21
S2140079C000C00050024B9869C0F30720704700BF04
S2140079D000C0005008B500239B6A9B69DB0205D5F2
S2140079E0012803D840F2022000F0A6F8012008BDC6
S2140079F000239B6A9868C0F30343C0F303621B022C
S214007A0043EA0233C0B21843704749BA89B24840C5
S214007A10C0F303134340180380B258405B0103F4DD
S214007A20FF535840704742DE7047000010B5FEF71F
S214007A300FFC0446FEF705FC0022012101FA02F3C2
S214007A40234018D0204B214933F81230062B18D08B
S214007A5040F20722934211D14FF000524FF20F002E
S214007A60548884420AD11088984207D14CF23C339D
S214007A705380088010BD0132102ADFD1134A1380CC
S214007A8012E04FF000534FF20F025888904218D180
S214007A901B88B3F5406F28BF4FF4C0630B804CF2D1
S214007AA03C324FF000535A80084B1A8840F201735C
S214007AB09A4201BF064B074AD2E90001C3E900011A
S214007AC0D8E74FF4C063E9E76E9603009C2E0020CB
S214007AD0942E002090100020164B1B881A0A13F0D4
S214007AE0FF03104604D1012A22D140F080007047DF
S214007AF0072AFAD801A353F822F000BF337B000010
S214007B00EB7A00001D7B0000217B0000217B00003B
S214007B10257B0000297B00002D7B00000920704794
S214007B2002207047032070470B20704706207047DE
S214007B30184670479C2E002010B50446FEF763FAE0
S214007B404FF000534FF20F021C805A80BFF35F8F36
S214007B50BFF34F8F0549064BCA6802F4E062134331
S214007B60CB60BFF34F8F00BFFDE700BF00ED00E026
S214007B700400FA0538B504460D4600F0A6F9FEF7EF
S214007B8042FA2B46224605490020FFF709F8294607
S214007B902046BDE83840FFF746BF00BF5B960300AF
S214007BA06C4A2DE9F0416C4B55686C4C5D65516A2A
S214007BB099656B49D1F80002D865D1F80412586B64
S214007BC01966916A10F0040F5966D16A4FF00000EA
S214007BD09966116BD966516B1967D26BD8645A6770
S214007BE0D3E90E2108BF11465E4A91421A655DD35D
S214007BF001F12000A04259D88869C5F30805186429
S214007C00CE69062D5E6455D1574DA84252D3574DC6
S214007C10A8424FD205884DF6426085424AD1186880
S214007C20C3F890005868C3F8940040F20170A2426E
S214007C30154604D22E680432B6F1CD3FF7D00022A6
S214007C40C3E91E22C3E92022C3E92222641B434E55
S214007C50DFF814C1DFF814E19C648E422DD8D3E916
S214007C601EC7D3E92065D3E922414FF0000E013A42
S214007C70D2B2FF2A3DD1BEF1000F05D0C3E91EC720
S214007C80C3E92065C3E92241B3F85430C3F30803BF
S214007C900C2B3CD8022B52D9DA1E092A4FD8DFE823
S214007CA002F0553241444E4E4E4E4E4B0021C3E933
S214007CB010112C494FF42060B9E756F8044D64457E
S214007CC0CBD37445C9D2E507C7D50625284F57F844
S214007CD0048BA045C1D0013D15F0FF05F7D10AB9C8
S214007CE0052201E0013AD2B202F11E0543F8254012
S214007CF0B3E7E0464FF0010EBC4637462E46254613
S214007D000C464146B3E740F60220BDE8F0813B2B27
S214007D1015D1184B9B6913F0020F40F2025318BF9F
S214007D201846F2E740F60320EFE740F60423B0F5E6
S214007D30206F08BF1846E8E740F60520E5E740F65E
S214007D400722013B4B2B98BF1046DEE740F601208A
S214007D50DBE700BF00ED00E0001000200010002070
S214007D6000E100E000000020344100008E93030094
S214007D70781000200080015A00F00CB800F00AB815
S214007D8000F008B800F006B800F004B800F002B83A
S214007D9000F000B872B61EF0080F09D01EF0040FEF
S214007DA00DD0DFF850E0AEE8FF1F6FF002000CE0E9
S214007DB0DFF840E0AEE8FF1F6FF00E0005E0DFF8EA
S214007DC034E0AEE8FF1F6FF006006946EFF3098265
S214007DD08EE8070086460848084C854501D3A54529
S214007DE001D384F30888FFF7DBFE84F30888FFF7E7
S214007DF0A3FE00000010002040000020001000201D
S214007E0082B2074B4AB1000C1A8008BF4FF6CE224A
S214007E10044B14BF18801A8070474BF6EF62F2E7E7
S214007E204C1100204E1100200B4BB3F9002018888F
S214007E30002AB8BF80F0620042001A80074AB2F9F2
S214007E40001013880029BCBF83F4805383F00B0313
S214007E5059001180584070474C1100204E110020E8
S214007E6008B501F0B1FE60B10A4B0344072B0DD8EC
S214007E70072B0BD8DFE803F004060A080A0A0A0CE8
S214007E80C22008BDC320FCE7C420FAE7C520F8E7F7
S214007E90C120F6E7FF1FFF0F10B404460846114640
S214007EA022465DF8044B01F06FBF01F0AFBF01F052
S214007EB0EFBF10B404460846114622465DF8044B50
S214007EC002F000B802F0D6B87047704710B5094AFD
S214007ED0137813F002040CD1074908480978007893
S214007EE0884206D0064863F07D0304800548137078
S214007EF0017010BDA12E00209E2E0020A62E002070
S214007F00822E0020A32E0020054B064A19881288D0
S214007F10914202BF0121044A117000221A80704764
S214007F20AC2E0020AE2E0020B02E002007B5034653
S214007F30009102223D20034912F02FFB03B05DF8AA
S214007F4004FB00BF9B96030007B5064B02221B7876
S214007F503D2000930449812312F01FFB03B05DF817
S214007F6004FB00BFAA2E00209B96030038B50C4DDC
S214007F700C4C2A7823789A4200D138BD00210A4852
S214007F801DF0F6FD094B1B88834202BF0122084BF9
S214007F901A702378013303F007032370E9E700BF64
S214007FA09E2E0020A42E0020A82E0020AE2E0020FC
S214007FB0B02E0020074B93F90030002B08DB064A52
S214007FC0137803F04101402904BF43F00503137002
S214007FD0704700BFAA2E0020A12E0020282307B538
S214007FE0054A3D20CDE9003204497023022212F0F2
S214007FF0D4FA03B05DF804FB3800E00F9496030053
S214008000702807B504D103B05DF804EBFFF7E6BFB0
S214008010074B02221B7807490193074B1B780093F6
S21400802003463D2012F0B9FA03B05DF804FB00BF2A
S214008030B12E00209A960300AA2E0020F8B500273D
S21400804006463D4630461DF031FB854200D3F8BD5E
S21400805030461DF02BFB441BE4B2202C294630464C
S21400806028BF20241DF082FE224601463846FFF730
S214008070BDFA2C440746E5B2E4E7000008B50A4816
S2140080801DF014F909481DF011F909481DF00EF904
S21400809008481DF00BF908481DF008F9BDE808402F
S2140080A006481DF003B900BFAC2E0020982F002014
S2140080B09A2F0020A82E0020AE2E0020B22E0020E0
S2140080C008B5DC22002104481DF0EEFB0122034B1C
S2140080D01880034B1A7008BDB92E0020AE2E002063
S2140080E0B02E002030B585B0FFF7EAFFFFF7EDFEB3
S2140080F04FF07E634FF6FF72B3F84C30224D93423A
S21400810008BF4FF47A732B800023204C2380FFF7A0
S21400811083FAFFF78FFA0028FBD04FF07E634FF606
S214008120FF72B3F84230934208BF4FF4C8632B8007
S21400813000232380FFF7D0FC431E154DDBB20A2B2D
S214008140144C287019D8012202FA03F340F20352A5
S214008150134212D00222C1230290CDE900323D2004
S21400816084230D4912F019FAFF232B70D0232370B5
S21400817005B0BDE83040FFF731BFFFF72FFFA02363
S214008180237005B030BD00BF802E0020822E002058
S214008190A02E0020A12E00209996030037B5044695
S2140081A00D461DF083FA022825D840F217111B4809
S2140081B0FFF7E0FC1A4B197801F14003DBB2022B03
S2140081C01FD901F0A003A02B04D00B0619D57E20E2
S2140081D0FFF7ACFE4FF07E63B3F8403013B1204695
S2140081E0FFF72CFFB5B1002221460E4803B0BDE8CC
S2140081F030401DF056BC20461DF058FADC28D4D876
S214008200D8E7CDE90014842302223D20064912F067
S214008210C4F9DFE72A4621460448E7E79F960300AD
S214008220952F0020982F0020FD9603009A2F0020FF
S21400823001460120FFF75BBB2DE9F74FFFF7FAF980
S214008240AB4C48B32378580626D599074CBFA94BA4
S214008250A94BAA4A1B7812789A4232D00120FFF71F
S214008260FDF97320FFF7CCFEA54A4FF6FF71137891
S2140082700133DBB213704FF07E62B2F848208A42B8
S21400828008BF0322934219DD51229E4B72201A70BA
S214008290FFF7B6FE202323709B4D9C4E94F90020DA
S2140082A02378002A18DA13F030030ED01A20FFF7CE
S2140082B0BFFF237803F07F032370EFE7FFF706FE88
S2140082C0EAE70022924B1A80E6E72A78022AF0D1E3
S2140082D08F4A2B701380E9E72A78012A00F0F7808E
S2140082E00DD9931E012BD9D83178FF2900F02481AF
S2140082F0002940F0F480874B19783246EDE09A0763
S21400830019D57C497D4A7C4892F800C007780A78DF
S214008310ACEB0200BA1A02F0070200F00700904227
S21400832098BF81F800C00A78BA4204D123F002034D
S2140083302370FFF71BFE237813F0300F1FD013F0C7
S214008340200F744F15D0C2233B706E4B1B78BB704A
S21400835002237B702378032023F03C032370012341
S2140083602B7032466B4B1978FFF770F8FFF760FFFB
S21400837094E7C1233B70FFF7AFFBB870E8E713F054
S2140083800C011FD0644F13F0040F3978614B0FD0E7
S2140083906039C9B219708020FFF7C8FD237823F032
S2140083A00C0301203A7823705C4B28701A70D8E7CB
S2140083B081F0800119707E20FFF7B8FD237823F046
S2140083C00803EEE79B0737D5DFF82881544A98F86C
S2140083D00030127801919B1A03F0070AFDF71BFE86
S2140083E0019981464F481DF056FB0746DFF834B129
S2140083F0BAF1000F16D14846FDF713FE4A4B384631
S2140084001F801DF053F9444B98F800201B7801306C
S21400841043EA02133F4A43F0080313700323C0B233
S2140084202B709EE7394658461DF087FB0AF1FF334E
S21400843007465FFA83FADBE7304B4FF6FF70197892
S2140084404FF07E63DB8F2C4F834208BF05233A78BC
S2140084500B44013B521A5B1A02F0070203F00703B3
S2140084609A42DFF8B48028DC30481DF00FFBE0B9F4
S2140084702E481DF00BFB2D4A2D4B0021002808BF6F
S21400848013462C4A184613601DF005FB264B188031
S2140084901DF00CF93A7898F80030013043EA0213E0
S2140084A01C4AC0B213700223BAE721481DF0EEFA48
S2140084B018B9FFF727F90028DAD1184B1A7898F878
S2140084C000309A425ED0237843F00803F4E633780F
S2140084D0FF2B4DD032460F49C95C002044E7124BB3
S2140084E00139C9B218881DF053FC014605E700BFE4
S2140084F0A12E0020A32E0020A62E00209E2E0020B7
S214008500A22E0020A02E0020B82E0020A72E00208D
S214008510822E0020952F0020A52E00209F2E0020C2
S214008520A42E0020A82E0020B22E0020982F002077
S2140085309A2F0020B42E0020022A1CD1134A0021B4
S2140085401378013303F007031370114B18681DF0FE
S2140085500FFB104B002219880F481DF0A2FA0F4B94
S2140085601B880BB9FFF758F80D4B1A780D4B1A708D
S21400857000232B7092E60C4A1378013303F00703AE
S2140085801370ECE703B0BDE8F08F00BFA62E002006
S214008590B42E0020B22E0020A82E0020822E00200E
S2140085A0A52E00209F2E0020A32E002010B50146E9
S2140085B004460120FFF786F928B126281BBF18239A
S2140085C000202720237010BD2DE9F04F8246DFF8EB
S2140085D0FC9285B00023DFF8F882AAF8003098F8FD
S2140085E000301BB989F80030FFF78EFCA94DAA4E63
S2140085F00DF10E00FFF7DAFF2728044616D04A468C
S2140086009DF80E000DF10F0199F800B0FEF76CFF13
S21400861010F0DF0704461BD0FFF776FC7A2827D831
S214008620732807D82028DAD0272821D1204605B07D
S214008630BDE8F08FA0F17404062C19D8DFE804F02A
S2140086400418444A184C4E007420FFF7D9FCC6E7BD
S21400865099F800309B4506D0022B0FD89DF80F20C6
S2140086608E4B03F80B20202CC2D0002C00F0FD808F
S21400867040F255118A48FFF77DFAB0E7032B10D178
S214008680884B1A786AB12A88012130461F703280DA
S2140086901DF01EFB012300933A46318882481DF0E8
S2140086A031FB2B8830889842DDD11CF0FFFFC7B223
S2140086B0791C2846C9B21DF00BFB39469DF80F20E1
S2140086C028881DF079FBCEE77620FFF799FCFFF7A8
S2140086D071FC84E77720F8E77920F6E77A20F4E75C
S2140086E00A060DD4032B2BD933785B0604D56F4BC3
S2140086F01B78B3EB111F01D0FFF706FC012519E02C
S21400870001F0E002802A06D1012B19D17D20FFF767
S2140087100DFC02250CE0A02A06D1012B10D17F20EB
S214008720FFF704FC032503E07B20FFF769FC002528
S214008730FFF7EAFB3078430604D42023337049E77A
S2140087407C20F2E76B1E022B16D85949DFF884B15D
S21400875098F800700A789BF8003007F00707A7EB38
S214008760020C9B1A0CF0070C03F007039C4515D966
S2140087707820FFF745FC0025AB1E012B2ED898F875
S214008780003013F0080326D0FEF7A2FF032D69D0B1
S214008790002D7FF41FAFFFF70DFC1BE79742EBD0D1
S2140087A00023444A10F002000F70137008D0424AAB
S2140087B01380424B1B78BB42DED0FEF72DFFDBE773
S2140087C0FEF74CFF9BF80030BB4201D0FEF724FFBB
S2140087D0FFF7CCFBD0E73A4A1370D7E7012DD5D187
S2140087E0324998F800200B78C2F3021098422DD137
S2140087F0294D288830B92620FFF7DCFB2624FFF712
S214008800FFFB13E7013303F007030B704FF07E63A3
S214008810170742BF327842F008023270327822F0F0
S21400882005023270B3F840300BB1FFF707FC2B8817
S2140088300222019398F800303D20009321498523B9
S21400884011F0ABFE2B88AAF80030EFE6110733785C
S21400885002D543F0080371E7DA079CD47520FFF7CA
S214008860CFFB98E7FFF732FBB4E6DFF8308099F8E5
S214008870003098F80010144EC0297FF431AF012B59
S2140088807FF45EAFFFF760FB0425FFF75DFBFEF7A6
S214008890A9FF4DE7AE2E0020AC2E0020AA2E002009
S2140088A09F960300B02E0020AB2E0020A52E0020A1
S2140088B09E2E0020A22E0020822E0020A32E002016
S2140088C0852E0020FD960300A12E0020B12E00204C
S2140088D0842E0020A62E002008B5114B1B781BB155
S2140088E0002000F0010008BD0E4B1A780E4B1B78D6
S2140088F09A42F5D116F036FD0028F1D10B481DF04E
S214008900C5F80028ECD00A481DF0C0F80028E7D0CB
S214008910084B1B78002BE3D10120FEF7FBFFE0E7B6
S214008920842E00209F2E0020A52E00209A2F0020A7
S214008930982F0020B82E002000207047104430B535
S214008940054602B930BD01F00F030A2B34BF3024B0
S2140089503724013A2344090905F8013DD2B2F0E76D
S214008960F0B519B3002820DA2D23B0F1004F1370AC
S21400897000D04042012119E0801B8642ECB205F18E
S2140089800105F9D914B9BCF1000F05D04FF0010C60
S2140089904D1C30345454E9B2013B13F0FF0309D1A7
S2140089A030305054481CC0B2F0BD002109234FF0AF
S2140089B0000C024F002557F8046BDEE7049703000F
S2140089C02DE9F04F002495B02146029480461646C5
S2140089D0A1464422274603A802AC9B46254630F013
S2140089E0A0FB0DF1480A317859B9641BE4B222465F
S2140089F029460020C047002840F0AF803C44E0B243
S214008A00ACE025291AD0B9F1000F1BD1204600F89A
S214008A10011B04465445C0F0F580641BE4B22946A9
S214008A2022460020C0470146002840F09680274492
S214008A3048222846FFB230F074FBE2E0B9F1000F9E
S214008A4000D101363278782A06D8612A07D8252A36
S214008A505DD039D8002AC8D04FF00009DAE7A2F175
S214008A6062011629F8D801A353F821F01B8B0000E9
S214008A70AD8B0000098C0000598A0000598A00005E
S214008A80598A0000598A0000598A0000598A000055
S214008A90598A0000098C0000598A0000598A000093
S214008AA0598A0000BF8B0000598A0000598A0000CE
S214008AB0BF8B0000598A0000098C0000598A00000C
S214008AC0598A0000FF8A0000392A16D82F2AC3D9EF
S214008AD0717801F0DF01582940F0C380322A06F190
S214008AE0010940F0AB805BF8041B2046042289B2E3
S214008AF0FFF724FF04464E46AEE7582AACD15BF893
S214008B00041B02222046C9B2FFF718FF55E0214693
S214008B1001F8022B62700C469EE74FF00009DBF866
S214008B2000300193DBF804300093009B994502D196
S214008B300BF1080B90E7019B2046022213F8091060
S214008B40FFF7FCFE5045044612D3441BE4B2294608
S214008B5022460020C047014618B1002015B0BDE8E7
S214008B60F08F48222846274430F0DBFA2C46FFB226
S214008B70009B5A1E4A4581BF2046202200F8012B42
S214008B80044654450FD3641BE4B22946224600200F
S214008B90C04701460028E0D148222846274430F046
S214008BA0C0FA2C46FFB209F10109BEE75B4653F84E
S214008BB0042B20469B4600F8012B04464CE7621B1C
S214008BC0D2B2294600205BF8049B0092C0470446B8
S214008BD00028C2D1009A0146174428464822FFB210
S214008BE030F09FFAE2B219F8020001340028F9D1F9
S214008BF049460092C0470028AFD18146009A1744E4
S214008C00FFB22C460136EEE66C2ADBF800000BF1CC
S214008C1004090ED17378752B14BF0121002101D0F1
S214008C20642B00D101362246FFF79AFECB46044459
S214008C3012E7752A0CBF00210121F4E7342A10D16F
S214008C405E4656F804BB04224FEA1B412046FFF757
S214008C5075FE1FFA8BF10422FFF770FEB34604463A
S214008C6049E74FF00109D5E6034B1B78002B14BFEC
S214008C7001200220704700BFCC2F00200329F8B542
S214008C8098BF124B05460E468CBF00245C5C03283A
S214008C9005D8DFE800F002080B0E44F002040C4B87
S214008CA01F684FB9F8BD44F00804F8E744F0200404
S214008CB0F5E744F08004F2E77B681A68144203D0B4
S214008CC0314628465B6898473F68EAE728970300DE
S214008CD0C82F002038B5104D2B78ABB10F4C237839
S214008CE01BB100F0EDFA00232370002000F00AFB11
S214008CF00B4C50B100F010FB0023012120782B70A4
S214008D00FFF7BCFF0123237038BD0122054B1A7004
S214008D102278054B1A70F7E7C62F0020C12F0020D7
S214008D20B82F0020C52F0020D42F002010B5FDF747
S214008D3063F9064B04461B781BB1BDE81040FDF7EF
S214008D405FB9FFF7C7FF2046F7E700BFC02F002038
S214008D50002814BF0121FF21074A13780B44137023
S214008D6008D0064B1B78012B04D9054B1B780BB992
S214008D70FFF7B0BF704700BFCC2F0020B82F0020F1
S214008D80C52F002070B5FDF737F9114E054633782C
S214008D908BB900F0D9FB044620B12846FDF730F920
S214008DA0204670BD0B48FCF788FA0B4B1C6000F0A1
S214008DB0E5FC0A4B186000F0DBF900F0E1FA084B1E
S214008DC000241860012328463370FDF719F9E7E7F9
S214008DD0C22F0020C82F0020D82F0020D02F002020
S214008DE0BC2F002000292DE9F34114BF0121FF21EB
S214008DF0254A00F1FF30135C0B4413543AD0234E3F
S214008E003278012A36D9FFF72FFF0128044634D8D6
S214008E101F4FFDF7F1F83B781BB31E4D2B781BB99F
S214008E2001222A701C4A1370DFF8708098F8003010
S214008E3033B1019000F044FA0023019888F800301E
S214008E40FDF7DEF8012000F05DFAFDF7D5F82B7887
S214008E502BB1019000F060FA002301982B700023DC
S214008E603B70FDF7CDF83078A04203D02146FFF7DF
S214008E7005FF347002B0BDE8F081032AF3D1022862
S214008E80F1D100F097FAEEE7CC2F0020B82F0020A3
S214008E90C62F0020C02F0020C52F0020C12F002085
S214008EA068B5FDF7A9F8094B06461B78012B04D8D0
S214008EB0FDF7A6F80025284668BD054B1D6800F09E
S214008EC063FA05443046FDF79BF8F4E7B82F002018
S214008ED0D82F002007B5FDF78FF80190FFF7FAFEB0
S214008EE0019803B05DF804EBFDF78AB838B5416029
S214008EF00446FDF781F8054621460448FCF7E0F9EC
S214008F002846BDE83840FDF77BB800BFC82F0020D4
S214008F10054B1B685843054B00F5742000F23F20B4
S214008F20B0FBF3F0704700BFD02F002040420F0088
S214008F302DE9F04385B0FDF75FF8044600E000BF7A
S214008F40FBF78EFD002800F08A80654E654F33786B
S214008F5023B10020FFF7FCFE00233370FFF784FEEA
S214008F600546002800F08380851EEDB2012D40F2F4
S214008F708680FFF779FE0128804604D95A4B1B7875
S214008F800BB900F05BF9594DDFF880912878404521
S214008F9007D099F8003013B94146FFF76FFE85F801
S214008FA00080B8F1010F0FD9DFF83C8198F8003047
S214008FB053B94F4B1B7823B900F07CF901224D4B77
S214008FC01A70012388F80030287800F0C3F999F861
S214008FD0003013B1484B1B782B7000E000BF2046D2
S214008FE0FDF70EF8FDF708F8444B04461A7852B120
S214008FF000221A70404B28781B78984203D1012132
S2140090002970FFF73BFE384600F0D8FAFBF73DFD27
S214009010804600289BD1344F3B789BB189F80000EE
S214009020DFF8D09099F800301BB100F049F989F8C4
S2140090300080002000F066F9002846D000F06CF9A9
S21400904000233B70337823B10020FFF781FE002316
S214009050337000212878FFF711FE00232B7000E004
S21400906000BF204605B0BDE8F043FCF7C9BF337823
S214009070002B3FF47EAFFFF76BFE357079E70020DC
S21400908003A900F01DFB054600287FF472AF1C4BB9
S214009090039A1B689A4205D80120FFF759FE012360
S2140090A0337066E7174BD3F8008000F06DF903992C
S2140090B040448842F0D20223091ACDE900533846CC
S2140090C02B46114A00F0A2FA53E7012000F042F9BD
S2140090D02046FCF795FFFCF78FFF0446A9E700BF84
S2140090E0CF2F00209C2F0020C62F0020B82F002056
S2140090F0CE2F0020C12F0020D42F0020C42F002008
S214009100BC2F0020D82F00202D8D0000C52F00205A
S21400911010B5FCF771FF0022044B1C781A70FCF7A0
S2140091206FFF00F035FC2043C0B210BDC32F0020F7
S21400913010B5094B1B786BB1084C237853B100F07F
S214009140EBF80023064A237013700123054A1370B8
S214009150054A137010BD00BFB82F0020C52F002091
S214009160C62F0020C32F0020C42F00207047000009
S2140091702C4A2D4B116F2D4801F0070170B5196070
S214009180D2F820318069032900F0020041D003F0B4
S2140091900703991E4B424B41D2F88012244D01F032
S2140091A001010B4323490B7060B33BB9D2F8003181
S2140091B003F003035A1E534253410B70194BD3F866
S2140091C0003103F00303022B25D0032B26D0012BFE
S2140091D018D1FBF717FEA8B1144B411EDC6800231C
S2140091E0024608461946C4F30B04134E013404EB3A
S2140091F08404E4FB06012FF085FDFFF789FE2B684B
S214009200184428606420FFF783FE2B681844286003
S21400921070BD0123C0E7FBF75BFEDCE7FBF708FE4B
S214009220D9E700BF00800050DC2F002000C00150AE
S214009230E42F0020E22F002040420F00FCF722BF60
S214009240074B1A7852B100221A70064A136F23F0A1
S214009250070343F001031367FBF7BEBD704700BF6B
S214009260E02F0020008000500E4B10B51B7883B115
S214009270022000F039FC60B100F054FA48B10A4B05
S2140092809A6DD20306D5DB6D9B0703D50122074BEB
S2140092909A6210BD0124064B1C70FDF795FB034B2C
S2140092A09C62F6E7E22F002000C0005000D000507D
S2140092B0E12F00200122014B1A707047E02F00209A
S2140092C038B50C4B1B786BB10B4C23787BB90B4B2A
S2140092D00B4D9A6D12F4803F05D0DB6D9B0702D5CF
S2140092E00123AB6238BDFDF76FFB0123AB620023A1
S2140092F02370F7E7E22F0020E12F002000C0005087
S21400930000D00050034B1B780BB1FDF7C3BB012008
S214009310704700BFE22F002008B5FCF7B4FE094AEC
S2140093200949136F096823F007030B431367074BBC
S2140093301B7813B10122064B9A62BDE80840FBF782
S2140093404BBD00BF00800050DC2F0020E22F002025
S21400935000E0005002280AD003280BD001280CD1C8
S214009360064A136923F00403136130BF70470020D8
S214009370FCF75CBE0020FCF771BE704700ED00E015
S2140093804FF4C870FFF7C4BD08B5054B187818B180
S214009390FDF760FB00EBD000024B1B68184408BDCD
S2140093A0E22F0020E42F00200122014B1A707047A4
S2140093B0E22F00207047000010B500F02FFB0A4C8B
S2140093C00A4B19682368C31A01B10BB9206010BD97
S2140093D04A699A423ABF9B1A0022D21A4A6128BFAB
S2140093E000238968F0E700BFEC2F00200030002043
S2140093F0C38870B504460D463BB9FFF751FD85425C
S214009400064602D2FFF766FD35460F4965610B68D2
S214009410ABB90C60A36011E0AD1A9A681846656196
S2140094202AB113465A69AA42F6D950B11A461346CB
S2140094308460A36013B15969491B596170BD00204F
S214009440F0E70C60F5E700BF0030002038B5134D9C
S2140094502B685B6993B1124A022014681C4400F022
S21400946017FB204600F0E2FA00230E492A680B702C
S214009470D088800709D501230B7038BD022000F084
S21400948007FB022000F028FBEEE79268002AF4D0E3
S21400949050690344012BEBD9EFE700BF00300020F2
S2140094A0EC2F0020F42F002070B516469DF81420EF
S2140094B0C0E903360271049ABDF818300260002233
S2140094C0C380826004460D4600F0A8FA3044A061CE
S2140094D03DB9E368656113B120462168984796B1A7
S2140094E03546FCF789FD0646FFF766FF2946204607
S2140094F0FFF77EFF054B1B68A34201D1FFF7A6FFCF
S2140095003046FCF77DFD002070BD00BF0030002017
S21400951000220C490B687BB183420AD183687AB17A
S214009520936083681BB15A6941690A445A610020F6
S21400953070471A469B68EEE70028EFD00220704777
S2140095400B60EEE70030002070B5FCF764FD144EAB
S21400955005463478FCB9134B1C60134B1C60134B48
S2140095601C8000F021FA012000F092FA00F0E6FAE2
S2140095700F4B0246186020B92846FCF752FD232000
S21400958070BD234640F2E7310A482FF0BBFB0A4B7A
S2140095901860012333702846FCF743FD0020EFE7F0
S2140095A0E82F002000300020EC2F0020F62F0020AF
S2140095B0FC2F002018FCFFFFF02F00202DE9F041C3
S2140095C00546F8B1FCF718FD0F4F0646FFF7F4FE08
S2140095D02846D7F80080FFF79BFF044628B13046A0
S2140095E0FCF70EFD2046BDE8F081A8453B6803D198
S2140095F023B1FFF72BFFF2E7002BF0D1022000F09B
S21400960053FAECE72224EDE70030002070B586B070
S21400961015461E460446059180B1FFF7CFFFBDF8FC
S2140096202C30002202939DF828302046CDE90063B6
S21400963005992B46FFF738FF06B070BD2220FBE7E2
S21400964038B50C46054698B191B100230B70FCF76F
S214009650E2FC0121074B1B680BB122781AB1FCF71C
S214009660E0FC002038BDAB4214BF9B682170F3E7D6
S2140096702220F7E700300020F0B51F46002387B011
S2140096800D46164604468DF81730A0B10DF11701A9
S214009690FFF7D6FF9DF817207AB9BDF83430294673
S2140096A002939DF830302046CDE900733346FFF72D
S2140096B0FBFE07B0F0BD2220FBE70320F9E7000021
S2140096C02DE9F04107468846FCF7A5FC002605462E
S2140096D0124B1C6824B92846FCF7A3FC1B2016E096
S2140096E063691E44E388BB4215D100F097F90C4C21
S2140096F02368C01AB0420CD200F090F922683244B7
S214009700121A2846C8F80020FCF78BFC0020BDE89B
S214009710F0810022F5E7A468DCE700BF00300020F7
S214009720EC2F0020014B1878704700BFF42F002064
S21400973038B5FCF770FC054600F070F9044628467C
S214009740FCF76FFC204638BD70B5FCF764FC064697
S21400975000F064F9084B04461D880120ADB200F005
S214009760C3F918B100F05AF9044601353046FCF743
S21400977058FC2046294670BDF62F0020014B18687D
S214009780704700BFFC2F00200C4B70B51B680D46C1
S214009790834211D340F2E73100248C462146084B21
S2140097A04FF47A721E680023E0FB06C160462FF075
S2140097B0A9FA2860204670BD2120FCE7F02F002083
S2140097C0FC2F0020014B1868704700BFF02F0020C8
S2140097D00F4B10B51A689AB14FF47A71531E1342A4
S2140097E0A0FB01010ED1B2FA82F2C2F11F04531C93
S2140097F0D243E04001FA03F3184321FA02F202438F
S214009800104610BD00232FF07DFA0246F8E700BF91
S214009810FC2F0020164B70B58342164B15468B4125
S21400982024D3154B1A680AB34FF47A76A0FB0603C6
S214009830541E144006FB013111D1B2FA82F3C3F173
S2140098401F025E1CDB4301FA06F6D04021FA03F342
S21400985030431843D140C5E90001204670BD0023BF
S2140098602FF050FA0024C5E90001F6E72124F4E7BA
S214009870EFA7C64B37894100FC2F0020C2072DE911
S214009880F34704460BD53F4A138801339BB2138037
S214009890FFF792FD3C4B1B680BB1FFF7D7FDA30704
S2140098A06DD5FCF7B8FB002605463746FFF784FD66
S2140098B0B146DFF8D480D8F800400CB163698BB1AC
